{
  "_format": "hh-sol-artifact-1",
  "contractName": "Raffle",
  "sourceName": "contracts/Raffle.sol",
  "abi": [
    {
      "inputs": [
        {
          "internalType": "address",
          "name": "vrfCoordinatorV2",
          "type": "address"
        },
        {
          "internalType": "uint256",
          "name": "entranceFee",
          "type": "uint256"
        },
        {
          "internalType": "bytes32",
          "name": "keyHash",
          "type": "bytes32"
        },
        {
          "internalType": "uint64",
          "name": "subscriptionId",
          "type": "uint64"
        },
        {
          "internalType": "uint32",
          "name": "callbackGasLimit",
          "type": "uint32"
        },
        {
          "internalType": "uint256",
          "name": "Interval",
          "type": "uint256"
        }
      ],
      "stateMutability": "nonpayable",
      "type": "constructor"
    },
    {
      "inputs": [
        {
          "internalType": "address",
          "name": "have",
          "type": "address"
        },
        {
          "internalType": "address",
          "name": "want",
          "type": "address"
        }
      ],
      "name": "OnlyCoordinatorCanFulfill",
      "type": "error"
    },
    {
      "inputs": [
        {
          "internalType": "uint256",
          "name": "balance",
          "type": "uint256"
        },
        {
          "internalType": "uint256",
          "name": "numPlayers",
          "type": "uint256"
        },
        {
          "internalType": "uint256",
          "name": "raffleState",
          "type": "uint256"
        }
      ],
      "name": "Raffle__UpKeepNotNeeded",
      "type": "error"
    },
    {
      "inputs": [],
      "name": "Raffle__notEnoughETHentered",
      "type": "error"
    },
    {
      "inputs": [],
      "name": "Raffle__notOpen",
      "type": "error"
    },
    {
      "inputs": [],
      "name": "Raffle__transferFailed",
      "type": "error"
    },
    {
      "anonymous": false,
      "inputs": [
        {
          "indexed": true,
          "internalType": "address",
          "name": "player",
          "type": "address"
        }
      ],
      "name": "RaffleEnter",
      "type": "event"
    },
    {
      "anonymous": false,
      "inputs": [
        {
          "indexed": true,
          "internalType": "address",
          "name": "winner",
          "type": "address"
        }
      ],
      "name": "WinnerPicked",
      "type": "event"
    },
    {
      "anonymous": false,
      "inputs": [
        {
          "indexed": true,
          "internalType": "uint256",
          "name": "requestId",
          "type": "uint256"
        }
      ],
      "name": "requestRaffleWinner",
      "type": "event"
    },
    {
      "inputs": [
        {
          "internalType": "bytes",
          "name": "",
          "type": "bytes"
        }
      ],
      "name": "checkUpkeep",
      "outputs": [
        {
          "internalType": "bool",
          "name": "upkeepNeeded",
          "type": "bool"
        },
        {
          "internalType": "bytes",
          "name": "",
          "type": "bytes"
        }
      ],
      "stateMutability": "view",
      "type": "function"
    },
    {
      "inputs": [],
      "name": "enterRaffle",
      "outputs": [],
      "stateMutability": "payable",
      "type": "function"
    },
    {
      "inputs": [],
      "name": "getEntranceFee",
      "outputs": [
        {
          "internalType": "uint256",
          "name": "",
          "type": "uint256"
        }
      ],
      "stateMutability": "view",
      "type": "function"
    },
    {
      "inputs": [],
      "name": "getInterval",
      "outputs": [
        {
          "internalType": "uint256",
          "name": "",
          "type": "uint256"
        }
      ],
      "stateMutability": "view",
      "type": "function"
    },
    {
      "inputs": [],
      "name": "getLastTimeStamp",
      "outputs": [
        {
          "internalType": "uint256",
          "name": "",
          "type": "uint256"
        }
      ],
      "stateMutability": "view",
      "type": "function"
    },
    {
      "inputs": [],
      "name": "getNumPlayers",
      "outputs": [
        {
          "internalType": "uint256",
          "name": "",
          "type": "uint256"
        }
      ],
      "stateMutability": "view",
      "type": "function"
    },
    {
      "inputs": [],
      "name": "getNumWords",
      "outputs": [
        {
          "internalType": "uint256",
          "name": "",
          "type": "uint256"
        }
      ],
      "stateMutability": "pure",
      "type": "function"
    },
    {
      "inputs": [
        {
          "internalType": "uint256",
          "name": "index",
          "type": "uint256"
        }
      ],
      "name": "getPlayer",
      "outputs": [
        {
          "internalType": "address",
          "name": "",
          "type": "address"
        }
      ],
      "stateMutability": "view",
      "type": "function"
    },
    {
      "inputs": [],
      "name": "getRaffleState",
      "outputs": [
        {
          "internalType": "enum Raffle.RaffleState",
          "name": "",
          "type": "uint8"
        }
      ],
      "stateMutability": "view",
      "type": "function"
    },
    {
      "inputs": [],
      "name": "getRecentWinner",
      "outputs": [
        {
          "internalType": "address",
          "name": "",
          "type": "address"
        }
      ],
      "stateMutability": "view",
      "type": "function"
    },
    {
      "inputs": [],
      "name": "getSubscriptionId",
      "outputs": [
        {
          "internalType": "uint256",
          "name": "",
          "type": "uint256"
        }
      ],
      "stateMutability": "view",
      "type": "function"
    },
    {
      "inputs": [
        {
          "internalType": "bytes",
          "name": "",
          "type": "bytes"
        }
      ],
      "name": "performUpkeep",
      "outputs": [],
      "stateMutability": "nonpayable",
      "type": "function"
    },
    {
      "inputs": [
        {
          "internalType": "uint256",
          "name": "requestId",
          "type": "uint256"
        },
        {
          "internalType": "uint256[]",
          "name": "randomWords",
          "type": "uint256[]"
        }
      ],
      "name": "rawFulfillRandomWords",
      "outputs": [],
      "stateMutability": "nonpayable",
      "type": "function"
    }
  ],
  "bytecode": "0x6101606040523480156200001257600080fd5b5060405162001987380380620019878339818101604052810190620000389190620001d1565b858073ffffffffffffffffffffffffffffffffffffffff1660808173ffffffffffffffffffffffffffffffffffffffff1660601b81525050508460a081815250508573ffffffffffffffffffffffffffffffffffffffff1660c08173ffffffffffffffffffffffffffffffffffffffff1660601b815250508360e081815250508267ffffffffffffffff166101008167ffffffffffffffff1660c01b815250508163ffffffff166101208163ffffffff1660e01b815250506000600160146101000a81548160ff021916908360018111156200013d577f4e487b7100000000000000000000000000000000000000000000000000000000600052602160045260246000fd5b02179055504260028190555080610140818152505050505050505062000355565b6000815190506200016f81620002d3565b92915050565b6000815190506200018681620002ed565b92915050565b6000815190506200019d8162000307565b92915050565b600081519050620001b48162000321565b92915050565b600081519050620001cb816200033b565b92915050565b60008060008060008060c08789031215620001eb57600080fd5b6000620001fb89828a016200015e565b96505060206200020e89828a016200018c565b95505060406200022189828a0162000175565b94505060606200023489828a01620001ba565b93505060806200024789828a01620001a3565b92505060a06200025a89828a016200018c565b9150509295509295509295565b6000620002748262000285565b9050919050565b6000819050919050565b600073ffffffffffffffffffffffffffffffffffffffff82169050919050565b6000819050919050565b600063ffffffff82169050919050565b600067ffffffffffffffff82169050919050565b620002de8162000267565b8114620002ea57600080fd5b50565b620002f8816200027b565b81146200030457600080fd5b50565b6200031281620002a5565b81146200031e57600080fd5b50565b6200032c81620002af565b81146200033857600080fd5b50565b6200034681620002bf565b81146200035257600080fd5b50565b60805160601c60a05160c05160601c60e0516101005160c01c6101205160e01c610140516115af620003d8600039600081816108cd015261093b01526000610733015260008181610710015261096d015260006106ef015260006106b30152600081816102fa01526103f7015260008181610337015261038b01526115af6000f3fe6080604052600436106100c25760003560e01c806353a2c19a1161007f57806391ad27b41161005957806391ad27b414610238578063c1c244e814610263578063de3d9fb71461028e578063e55ae4e8146102b9576100c2565b806353a2c19a146101a457806355c9e926146101cf5780636e04ff0d146101fa576100c2565b806309bc33a7146100c7578063115cbaf5146100f25780631fe543e31461011d5780632cfcc539146101465780634585e33b14610150578063473f1ddc14610179575b600080fd5b3480156100d357600080fd5b506100dc6102f6565b6040516100e991906111f0565b60405180910390f35b3480156100fe57600080fd5b5061010761031e565b60405161011491906111d5565b60405180910390f35b34801561012957600080fd5b50610144600480360381019061013f9190610fc2565b610335565b005b61014e6103f5565b005b34801561015c57600080fd5b5061017760048036038101906101729190610eea565b6105b0565b005b34801561018557600080fd5b5061018e6107fb565b60405161019b919061110e565b60405180910390f35b3480156101b057600080fd5b506101b9610825565b6040516101c691906111f0565b60405180910390f35b3480156101db57600080fd5b506101e4610832565b6040516101f191906111f0565b60405180910390f35b34801561020657600080fd5b50610221600480360381019061021c9190610f2f565b61083e565b60405161022f929190611152565b60405180910390f35b34801561024457600080fd5b5061024d610937565b60405161025a91906111f0565b60405180910390f35b34801561026f57600080fd5b5061027861095f565b60405161028591906111f0565b60405180910390f35b34801561029a57600080fd5b506102a3610969565b6040516102b091906111f0565b60405180910390f35b3480156102c557600080fd5b506102e060048036038101906102db9190610f70565b61099b565b6040516102ed919061110e565b60405180910390f35b60007f0000000000000000000000000000000000000000000000000000000000000000905090565b6000600160149054906101000a900460ff16905090565b7f000000000000000000000000000000000000000000000000000000000000000073ffffffffffffffffffffffffffffffffffffffff163373ffffffffffffffffffffffffffffffffffffffff16146103e757337f00000000000000000000000000000000000000000000000000000000000000006040517f1cf993f40000000000000000000000000000000000000000000000000000000081526004016103de929190611129565b60405180910390fd5b6103f18282610a08565b5050565b7f000000000000000000000000000000000000000000000000000000000000000034101561044f576040517f312bf50b00000000000000000000000000000000000000000000000000000000815260040160405180910390fd5b60006001811115610489577f4e487b7100000000000000000000000000000000000000000000000000000000600052602160045260246000fd5b600160149054906101000a900460ff1660018111156104d1577f4e487b7100000000000000000000000000000000000000000000000000000000600052602160045260246000fd5b14610508576040517f4ff3426e00000000000000000000000000000000000000000000000000000000815260040160405180910390fd5b6000339080600181540180825580915050600190039060005260206000200160009091909190916101000a81548173ffffffffffffffffffffffffffffffffffffffff021916908373ffffffffffffffffffffffffffffffffffffffff1602179055503373ffffffffffffffffffffffffffffffffffffffff167f0805e1d667bddb8a95f0f09880cf94f403fb596ce79928d9f29b74203ba284d460405160405180910390a2565b60006105ca6040518060200160405280600081525061083e565b5090508061065f5747600080549050600160149054906101000a900460ff166001811115610621577f4e487b7100000000000000000000000000000000000000000000000000000000600052602160045260246000fd5b6040517f3a8d60860000000000000000000000000000000000000000000000000000000081526004016106569392919061120b565b60405180910390fd5b60018060146101000a81548160ff021916908360018111156106aa577f4e487b7100000000000000000000000000000000000000000000000000000000600052602160045260246000fd5b021790555060007f000000000000000000000000000000000000000000000000000000000000000073ffffffffffffffffffffffffffffffffffffffff16635d3b1d307f00000000000000000000000000000000000000000000000000000000000000007f000000000000000000000000000000000000000000000000000000000000000060037f000000000000000000000000000000000000000000000000000000000000000060016040518663ffffffff1660e01b8152600401610774959493929190611182565b602060405180830381600087803b15801561078e57600080fd5b505af11580156107a2573d6000803e3d6000fd5b505050506040513d601f19601f820116820180604052508101906107c69190610f99565b9050807f4f696f1fc938074bb61a2063da34e10735cbc8e1589fb1ccf9443c099a59524560405160405180910390a250505050565b6000600160009054906101000a900473ffffffffffffffffffffffffffffffffffffffff16905090565b6000600161ffff16905090565b60008080549050905090565b600060606000600160149054906101000a900460ff16600181111561088c577f4e487b7100000000000000000000000000000000000000000000000000000000600052602160045260246000fd5b600060018111156108c6577f4e487b7100000000000000000000000000000000000000000000000000000000600052602160045260246000fd5b14905060007f0000000000000000000000000000000000000000000000000000000000000000600254426108fa91906112eb565b1190506000806000805490501190506000804711905083801561091a5750825b80156109235750815b801561092c5750805b955050505050915091565b60007f0000000000000000000000000000000000000000000000000000000000000000905090565b6000600254905090565b60007f000000000000000000000000000000000000000000000000000000000000000067ffffffffffffffff16905090565b60008082815481106109d6577f4e487b7100000000000000000000000000000000000000000000000000000000600052603260045260246000fd5b9060005260206000200160009054906101000a900473ffffffffffffffffffffffffffffffffffffffff169050919050565b6000808054905082600081518110610a49577f4e487b7100000000000000000000000000000000000000000000000000000000600052603260045260246000fd5b6020026020010151610a5b919061144d565b90506000808281548110610a98577f4e487b7100000000000000000000000000000000000000000000000000000000600052603260045260246000fd5b9060005260206000200160009054906101000a900473ffffffffffffffffffffffffffffffffffffffff16905080600160006101000a81548173ffffffffffffffffffffffffffffffffffffffff021916908373ffffffffffffffffffffffffffffffffffffffff1602179055506000600160146101000a81548160ff02191690836001811115610b52577f4e487b7100000000000000000000000000000000000000000000000000000000600052602160045260246000fd5b0217905550600067ffffffffffffffff811115610b98577f4e487b7100000000000000000000000000000000000000000000000000000000600052604160045260246000fd5b604051908082528060200260200182016040528015610bc65781602001602082028036833780820191505090505b5060009080519060200190610bdc929190610cd1565b504260028190555060008173ffffffffffffffffffffffffffffffffffffffff1647604051610c0a906110f9565b60006040518083038185875af1925050503d8060008114610c47576040519150601f19603f3d011682016040523d82523d6000602084013e610c4c565b606091505b5050905080610c87576040517f9594d81300000000000000000000000000000000000000000000000000000000815260040160405180910390fd5b8173ffffffffffffffffffffffffffffffffffffffff167f5b690ec4a06fe979403046eaeea5b3ce38524683c3001f662c8b5a829632f7df60405160405180910390a25050505050565b828054828255906000526020600020908101928215610d4a579160200282015b82811115610d495782518260006101000a81548173ffffffffffffffffffffffffffffffffffffffff021916908373ffffffffffffffffffffffffffffffffffffffff16021790555091602001919060010190610cf1565b5b509050610d579190610d5b565b5090565b5b80821115610d74576000816000905550600101610d5c565b5090565b6000610d8b610d8684611267565b611242565b90508083825260208201905082856020860282011115610daa57600080fd5b60005b85811015610dda5781610dc08882610ec0565b845260208401935060208301925050600181019050610dad565b5050509392505050565b6000610df7610df284611293565b611242565b905082815260208101848484011115610e0f57600080fd5b610e1a8482856113da565b509392505050565b600082601f830112610e3357600080fd5b8135610e43848260208601610d78565b91505092915050565b60008083601f840112610e5e57600080fd5b8235905067ffffffffffffffff811115610e7757600080fd5b602083019150836001820283011115610e8f57600080fd5b9250929050565b600082601f830112610ea757600080fd5b8135610eb7848260208601610de4565b91505092915050565b600081359050610ecf81611562565b92915050565b600081519050610ee481611562565b92915050565b60008060208385031215610efd57600080fd5b600083013567ffffffffffffffff811115610f1757600080fd5b610f2385828601610e4c565b92509250509250929050565b600060208284031215610f4157600080fd5b600082013567ffffffffffffffff811115610f5b57600080fd5b610f6784828501610e96565b91505092915050565b600060208284031215610f8257600080fd5b6000610f9084828501610ec0565b91505092915050565b600060208284031215610fab57600080fd5b6000610fb984828501610ed5565b91505092915050565b60008060408385031215610fd557600080fd5b6000610fe385828601610ec0565b925050602083013567ffffffffffffffff81111561100057600080fd5b61100c85828601610e22565b9150509250929050565b61101f8161131f565b82525050565b61102e81611331565b82525050565b61103d8161133d565b82525050565b600061104e826112c4565b61105881856112cf565b93506110688185602086016113e9565b6110718161153a565b840191505092915050565b611085816113b6565b82525050565b60006110986000836112e0565b91506110a38261154b565b600082019050919050565b6110b78161135a565b82525050565b6110c6816113c8565b82525050565b6110d581611388565b82525050565b6110e481611392565b82525050565b6110f3816113a2565b82525050565b60006111048261108b565b9150819050919050565b60006020820190506111236000830184611016565b92915050565b600060408201905061113e6000830185611016565b61114b6020830184611016565b9392505050565b60006040820190506111676000830185611025565b81810360208301526111798184611043565b90509392505050565b600060a0820190506111976000830188611034565b6111a460208301876110ea565b6111b160408301866110ae565b6111be60608301856110db565b6111cb60808301846110bd565b9695505050505050565b60006020820190506111ea600083018461107c565b92915050565b600060208201905061120560008301846110cc565b92915050565b600060608201905061122060008301866110cc565b61122d60208301856110cc565b61123a60408301846110cc565b949350505050565b600061124c61125d565b9050611258828261141c565b919050565b6000604051905090565b600067ffffffffffffffff8211156112825761128161150b565b5b602082029050602081019050919050565b600067ffffffffffffffff8211156112ae576112ad61150b565b5b6112b78261153a565b9050602081019050919050565b600081519050919050565b600082825260208201905092915050565b600081905092915050565b60006112f682611388565b915061130183611388565b9250828210156113145761131361147e565b5b828203905092915050565b600061132a82611368565b9050919050565b60008115159050919050565b6000819050919050565b60008190506113558261154e565b919050565b600061ffff82169050919050565b600073ffffffffffffffffffffffffffffffffffffffff82169050919050565b6000819050919050565b600063ffffffff82169050919050565b600067ffffffffffffffff82169050919050565b60006113c182611347565b9050919050565b60006113d38261135a565b9050919050565b82818337600083830152505050565b60005b838110156114075780820151818401526020810190506113ec565b83811115611416576000848401525b50505050565b6114258261153a565b810181811067ffffffffffffffff821117156114445761144361150b565b5b80604052505050565b600061145882611388565b915061146383611388565b925082611473576114726114ad565b5b828206905092915050565b7f4e487b7100000000000000000000000000000000000000000000000000000000600052601160045260246000fd5b7f4e487b7100000000000000000000000000000000000000000000000000000000600052601260045260246000fd5b7f4e487b7100000000000000000000000000000000000000000000000000000000600052602160045260246000fd5b7f4e487b7100000000000000000000000000000000000000000000000000000000600052604160045260246000fd5b6000601f19601f8301169050919050565b50565b6002811061155f5761155e6114dc565b5b50565b61156b81611388565b811461157657600080fd5b5056fea2646970667358221220e3793fa0635b9d17f0ae4c5a4df4aa1788052eda8299d3c5067adda73fdb9ded64736f6c63430008040033",
  "linkReferences": {},
  "deployedLinkReferences": {}
}